:020000040800F2
:10000000000002201D770008657300086773000870
:10001000697300086B7300086D730008000000002E
:100020000000000000000000000000006166000801
:100030006F73000800000000016700086567000892
:100040006D7700086D7700086D7700086D77000800
:100050006D7700086D7700086D7700086D770008F0
:100060006D7700086D7700086D7700086D770008E0
:100070006D7700086D7700086D7700086D770008D0
:100080006D770008717300086D7700086D770008C0
:100090006D7700086D7700086D7700086D770008B0
:1000A0006D7700086D7700086D7700086D770008A0
:1000B0006D7700086D7700086D7700086D77000890
:1000C0006D7700086D7700086D7700086D77000880
:1000D0006D7700086D770008817300086D77000860
:1000E0006D7700086D7700086D7700086D77000860
:1000F0006D7700086D7700086D7700086D77000850
:100100006D7700086D7700086D7700086D7700083F
:100110006D7700086D7700086D770008917300080F
:100120006D7700086D7700086D7700086D7700081F
:100130006D7700086D7700086D7700086D7700080F
:100140006D7700086D7700086D770008A1730008CF
:100150006D7700086D7700086D7700086D770008EF
:100160006D7700086D7700086D7700086D770008DF
:100170006D7700086D7700086D77000800000000BB
:080180006D7700086D7700089F
:1001900010B5054C237833B9044B13B10448AFF3C1
:1001A00000800123237010BD940000200000000097
:1001B0008079000808B5034B1BB103490348AFF32E
:1001C000008008BD00000000980000208079000831
:1001D00053B94AB9002908BF00281CBF4FF0FF31AE
:1001E0004FF0FF3000F072B9ADF1080C6DE904CEAC
:1001F00000F006F8DDF804E0DDE9022304B0704702
:100200002DE9F047089E04468846002B4BD18A42D0
:10021000154667D9B2FA82F24AB1C2F1200701FA53
:1002200002F320FA07F7954047EA030894404FEAA3
:10023000154E230CB8FBFEF71FFA85FC0EFB178842
:1002400043EA084307FB0CF1994209D9EB1807F17F
:10025000FF3080F01B81994240F21881023F2B440D
:100260005B1AA4B2B3FBFEF00EFB103344EA034466
:1002700000FB0CFCA44509D92C1900F1FF3380F0D8
:100280000781A44540F2048102382C4440EA07402B
:10029000A4EB0C0400271EB1D4400023C6E90043A0
:1002A0003946BDE8F0878B4209D9002E00F0EB807B
:1002B0000027C6E9000138463946BDE8F087B3FAA1
:1002C00083F7002F47D18B4202D3824200F2FA809B
:1002D000841A61EB030301209846002EE0D0C6E9A2
:1002E0000048DDE702B9FFDEB2FA82F2002A40F0F0
:1002F0008F80491B4FEA154E1FFA85F80127B1FB85
:10030000FEFC230C0EFB1C1143EA014308FB0CF11D
:10031000994207D9EB180CF1FF3002D2994200F252
:10032000CD808446591AA3B2B1FBFEF00EFB101427
:1003300043EA044408FB00F8A04507D92C1900F152
:10034000FF3302D2A04500F2B6801846A4EB0804A1
:1003500040EA0C409FE7C7F1200CBB4022FA0CFE9C
:100360004EEA030E01FA07F420FA0CF521FA0CF319
:100370004FEA1E482543B3FBF8F92C0C08FB193350
:100380001FFA8EFA44EA034309FB0AF49C4202FA7C
:1003900007F200FA07F10BD91EEB030309F1FF3056
:1003A00080F087809C4240F28480A9F10209734466
:1003B0001B1BADB2B3FBF8F008FB103345EA034456
:1003C00000FB0AFAA24508D91EEB040400F1FF3332
:1003D0006BD2A24569D90238744440EA0940A0FBB7
:1003E0000289A4EB0A044C45C2464B4654D351D073
:1003F000002E69D0B1EB0A0564EB030404FA0CFC8F
:10040000FD40FC404CEA0505C6E90054002747E7DB
:10041000C2F1200320FA03F7954001FA02F021FA15
:1004200003F34FEA154E3843010CB3FBFEF71FFAF6
:1004300085F80EFB173341EA034107FB08F38B42B3
:1004400004FA02F407D9691807F1FF3C2FD28B4256
:100450002DD9023F2944CB1A81B2B3FBFEF00EFB2B
:10046000103341EA034100FB08F38B4207D96918B6
:1004700000F1FF3C17D28B4215D902382944C91A22
:1004800040EA07473BE73746304609E70746E7E6D5
:100490001846FBE64145ABD2B8EB020A69EB0E0207
:1004A00001381346A4E76046E9E7184695E7674632
:1004B000D1E781467CE702382C4447E7ACF1020CD7
:1004C0002B442FE7384608E73746E9E6704700BF78
:1004D000034613F8012B002AFBD1181A0138704784
:1004E00008B50B4B1A6842F400721A601A6842F49D
:1004F00080621A601A6842F480721A60032000F069
:100500002FF8002006F0F0FE06F0B0FD002008BD38
:10051000003C0240034A1168034B1B780B441360F4
:10052000704700BF944B002000000020014B18686A
:10053000704700BF944B002038B50446FFF7F6FF24
:100540000546B4F1FF3F02D0044B1B781C44FFF773
:10055000EDFF401BA042FAD338BD00BF00000020D1
:10056000074AD36823F4E0631B041B0C000200F469
:10057000E060184340F0BF6040F40030D060704746
:1005800000ED00E030B4174BDB68C3F30223C3F186
:100590000704042C28BF04241D1D062D18D9033B75
:1005A0004FF0FF3505FA04F421EA0401994005FAF9
:1005B00003F322EA0303194300280BDB0901C9B244
:1005C00000F1604000F5614080F8001330BC7047D6
:1005D0000023E5E700F00F000901C9B2024B1954EE
:1005E000F4E700BF00ED00E014ED00E0002807DBB9
:1005F00000F01F02400901239340024A42F82030D4
:10060000704700BF00E100E030B405682C6824F4B6
:1006100080242C60046863608368402B05D00368E5
:1006200099600368DA6030BC704703689A600368B9
:10063000D960F8E70268D3B2103B0B49A1FB031362
:100640001B090A49C95CC165032B06D822F47F72D5
:1006500022F003028265806D704722F47F7222F0DF
:10066000030204328265F6E7ABAAAAAA98790008C9
:10067000836A826992B9012B0AD01BB1022B01D087
:1006800000207047C36A13F0807F2CD10020704790
:10069000C36AB3F1C07F28D000207047B2F5005F75
:1006A00005D0022B29D9032B15D000207047032B2E
:1006B00003D8DFE803F01C041C0A00207047C36A5B
:1006C00013F0807F15D100207047C36AB3F1C07F5B
:1006D00011D000207047C36A13F0807F01D0012041
:1006E00070470020704701207047012070470120AB
:1006F00070470120704701207047012070470000BB
:1007000070B50446FFF712FF002C5BD005460023AE
:1007100084F83430022384F835302268136823F0DB
:100720000103136023681A6812F0010F0AD0FFF763
:10073000FDFE401B0528F5D920236365032084F8BE
:10074000350070BD1A68204810406168A2680A43ED
:10075000E1680A4321690A4361690A43A1690A43BE
:10076000E1690A43216A0A430243616A04291ED0EF
:100770001A602668756925F00705636A1D43042B16
:1007800007D1A36A1D43E36A1BB12046FFF770FF40
:1007900090B975612046FFF74DFFE26D3F2393400E
:1007A000836000206065012384F83530C9E7E16A81
:1007B000206B01430A43DBE740236365012084F893
:1007C0003500BEE70120BCE73F8010F038B5856DED
:1007D00090F83440012C31D0012480F8344090F856
:1007E0003540E4B2012C04D0002380F834300220DC
:1007F00038BD0446022084F835000020606520469C
:10080000FFF702FFE26D3F239340AB60226813685D
:1008100043F0160313602268536943F08003536169
:10082000236C23B12268136843F008031360226825
:10083000136843F0010313600020D9E70220D7E7D3
:1008400090F83530DBB2022B03D0802343650120C2
:100850007047052380F835300268136823F00103E0
:100860001360002070470000F0B583B004460023F9
:100870000193724B1D68724BA3FB0535AD0A876D62
:100880003E68C26D08239340334210D003681A6853
:1008900012F0040F0BD01A6822F004021A60C26D25
:1008A00008239340BB60436D43F001034365E26D51
:1008B00001239340334209D02268526912F0800F1D
:1008C00004D0BB60636D43F002036365E26D0423F3
:1008D0009340334209D02268126812F0020F04D00C
:1008E000BB60636D43F004036365E26D10239340C6
:1008F000334224D02268126812F0080F1FD0BB6068
:1009000023681A6812F4802F0DD01B6813F4002F8F
:1009100004D1236C9BB12046984710E0A36C73B1BF
:10092000204698470BE01A6812F4807F03D11A68BA
:1009300022F008021A60236C0BB120469847E26D42
:1009400020239340334255D02268126812F0100FD2
:1009500050D0BB6094F83530DBB2052B0ED0236845
:100960001A6812F4802F33D01B6813F4002F2AD199
:10097000636C002B3ED0204698473BE0226813680A
:1009800023F0160313602268536923F08003536138
:10099000236CA3B12268136823F008031360E26D8F
:1009A0003F239340BB60002384F83430012384F854
:1009B0003530236D002B3FD0204698473CE0A36C98
:1009C000002BE7D1EBE7E36BA3B12046984711E09A
:1009D0001A6812F4807F09D11A6822F010021A6096
:1009E000002384F83430012384F83530E36B0BB1F5
:1009F00020469847636DFBB1636D13F0010F17D06C
:100A0000052384F835302268136823F0010313604E
:100A1000019B01330193AB4204D823681B6813F098
:100A2000010FF5D1002384F83430012384F83530E8
:100A3000E36C0BB12046984703B0F0BD2C000020BA
:100A4000B5814E1B00230F2B00F2D780F0B482B08B
:100A500039E0072200E00022B2403A430234674EF8
:100A600046F82420664A1468EA4302EA04064F68FE
:100A700017F4803F01D045EA0406614C26606468A3
:100A800002EA04064F6817F4003F01D045EA040665
:100A90005B4C6660A46802EA04064F6817F4801F86
:100AA00001D045EA0406564CA660E46822404E6830
:100AB00016F4001F01D045EA0402514CE2600133F4
:100AC0000F2B00F2978001229A400C6804EA02057D
:100AD000AA42F4D14C68022C01D0122C10D1DE08AD
:100AE000083650F826C003F00704A7000F24BC40C6
:100AF0002CEA040C0C69BC4044EA0C0440F8264083
:100B000004685F000326BE40F64306EA040C4C6806
:100B100004F00304BC4044EA0C0404604C6804F193
:100B2000FF3CBCF1010F03D9112C01D0122C10D1C4
:100B3000846806EA040CCC68BC4044EA0C04846077
:100B4000446824EA02024C68C4F300149C40144335
:100B50004460C26816408A68BA403243C2604A683C
:100B600012F0805FABD000220192264A546C44F40C
:100B700080445464526C02F480420192019A9C08B1
:100B8000A61C1E4A52F8267003F0030296000F229C
:100B9000B24027EA02071C4A90423FF45CAF02F5DC
:100BA000806290421AD002F58062904218D002F51D
:100BB0008062904216D002F58062904214D002F515
:100BC0008062904212D002F58062904210D002F50D
:100BD000806290423FF43DAF08223DE701223BE7AF
:100BE000022239E7032237E7042235E7052233E7FB
:100BF000062231E702B0F0BC704770470038014070
:100C0000003C0140003802400000024012B90904D3
:100C10008161704781617047436931EA030301D004
:100C2000816170470904816170470000F8B506686A
:100C3000346A04F00F07C4F34343C4F30A14022BCD
:100C40002ED16CB307EB8702D3000344596C39B340
:100C500005462246304602F095FBBA003A44D300DE
:100C60002B445A6C22445A64DA6C2244DA6406EB50
:100C70004713D3F810150B4A0A408AB1D3F8002560
:100C800022F0804242F00042C3F80025BB00D9198F
:100C9000CA002A4492F8503083F0010382F85030A1
:100CA000F8BD00BF0000F81FF0B585B09DF82850D2
:100CB0009DF82C60BDF8307090F8B842012C41D0FE
:100CC000012480F8B8424FEA810C8C444FEACC04EE
:100CD00004444FF0000C84F83DC084F83830A4F888
:100CE000407084F8391084F83F6002F07F0C84F87B
:100CF0003AC012F0800F1BD101EB810C4FEACC04FB
:100D000004444FF0000C84F83BC0044601EB810C16
:100D10004FEACC00204480F83C50029701960095A1
:100D2000206802F03BFC002384F8B83205B0F0BD27
:100D300001EB810C4FEACC0404444FF0010C84F821
:100D40003BC0E2E70220F1E790F8B832012B0BD06C
:100D500010B50446012380F8B832006802F0A7FC01
:100D6000002084F8B80210BD02207047002845D04A
:100D7000F0B58BB00646046890F8B932002B38D035
:100D8000032386F8B932E36B13F4807F01D100238B
:100D90003361306802F09DFA344654F810CB6D464A
:100DA0000FCC0FC50FCC0FC594E8030085E80300F6
:100DB000371D97E80E00604602F040FA01213068C6
:100DC00002F08DFA344654F810CB6D460FCC0FC5A7
:100DD0000FCC0FC594E8030085E8030097E80E00E8
:100DE000604602F04DFB012386F8B93200200BB0BB
:100DF000F0BD80F8B83206F055FBC1E7012070471E
:100E0000F8B59DF81870BDF820608D000D44EC0019
:100E1000044484F83B2084F83F306FB901EB81052E
:100E2000EC000444032584F84250032B00F2968022
:100E3000DFE803F00A8D2F5E01EB8105EC0004442E
:100E4000022584F84250F0E7012F40F08780002A05
:100E500040F0848036B901EB8102D30003440122C3
:100E600083F8512001EB8102D300034493F8513001
:100E70003BB901EB8102D3000344002283F84220F6
:100E80006CE001EB8102D3000344022283F842208C
:100E900064E0B2B901EB8102D300034493F851300E
:100EA0003BB901EB8102D3000344002283F84220C6
:100EB00054E001EB8102D3000344022283F8422074
:100EC0004CE001EB8102D300034493F850303BB96E
:100ED00001EB8102D3000344002283F842203DE06D
:100EE00001EB8102D3000344022283F8422035E063
:100EF000B2B901EB8102D300034493F851303BB9FE
:100F000001EB8102D3000344002283F8422025E054
:100F100001EB8102D3000344022283F842201DE04A
:100F200001EB8102D300034493F850303BB901EB4D
:100F30008102D3000344002283F842200EE001EB3B
:100F40008102D3000344022283F8422006E001EB31
:100F50008102D3000344002283F842208A005418FF
:100F6000E3000344079C5C649E64002483F85C40B7
:100F7000DC6483F8391083F85D401144CB0003F141
:100F80003801027C0144006802F00CFCF8BD30B569
:100F900083B005460468D4F840340193D4F8403453
:100FA0000093009B23F02E030093019B13F0020F8C
:100FB00007D0019B13F0010F28D1009B43F00203DF
:100FC0000093019B13F0080F13D0009B43F008031C
:100FD0000093019B13F0040F34D0AB69022B1CD09B
:100FE000EB68012B29D0284606F0C0FA284606F007
:100FF000ABFA019B13F0200F03D0009B43F02003BA
:101000000093009BC4F8403403B030BDA36923F0C3
:101010000053A36106F098FACFE7019B03F4C023C5
:10102000B3F5802F04D00121286802F0C7F9DAE770
:101030000221286802F0C2F9D5E74EF66022C4F812
:101040000424D0E7284606F097FAD4F8403423F079
:101050002E03C4F840342A68936943F00053936127
:10106000C7E7F8B506460D46076807EB411707F5D1
:10107000A064A36813F0040F3ED00423A360E368C8
:1010800043F00203E360A36813F4007F6AD1A3680E
:1010900013F0010F00F0878033694BB1AA002A4496
:1010A000D30033449A6C2169C1F31201521ADA64F5
:1010B000AA002A44D3003344012283F85D20002192
:1010C0009965A26093F83F30002B57D0022B55D082
:1010D000032B5DD1D7F8003543F00053C7F8003536
:1010E00005EB8502D3003344012283F85C202946B6
:1010F000304606F035FA4BE0A36813F0200F02D01B
:101100002023A360BFE7A36813F0080F17D1A368DB
:1011100013F4806FB7D0E36843F00203E360006824
:1011200002F0C5FA1023A36005EB8502D300334417
:10113000082283F85D204FF48063A360A3E7E3688F
:1011400043F00203E36001EB8102D3000344052274
:1011500083F85D201023A3600823A360006802F0D9
:10116000A6FA90E7E36843F00203E360294630689B
:1011700002F09DFA4FF40073A36013E0E36843F0BC
:101180000203E3602946306802F091FA1023A3605D
:10119000AB005919CA00324492F8503083F0010371
:1011A00082F85030F8BDA36813F0020F62D0E368F4
:1011B00023F00203E36005EB8502D300334493F888
:1011C0005D30012B17D0052B29D0062B2FD0082BF3
:1011D0002DD0032B16D105EB8502D3003344022218
:1011E00083F85C20D7F8003523F0804343F00043B8
:1011F000C7F8003506E005EB8502D3003344012231
:1012000083F85C200223A36005EB8502D3003344FE
:1012100093F85C202946304606F0A2F9C2E705EBB8
:101220008502D3003344052283F85C20EAE7AA0054
:101230002A44D30033449A6D01329A65032A11D9A6
:10124000AA002A44D300334400229A65042283F87A
:101250005C20D7F8003523F0804343F00043C7F803
:101260000035CFE705EB8502D3003344022283F833
:101270005C20EEE7A36813F0800F19D1A36813F088
:10128000100F8FD005EB8502D300334493F83F3025
:10129000032B25D00BB1022B07D105EB8502D30020
:1012A000334400229A6533694BB31023A36079E776
:1012B000E36843F00203E360AB005919CA0032440B
:1012C000916D013191652B44DA003244062382F896
:1012D0005D302946306802F0EAF98023A36061E7B7
:1012E00005EB8502D300334400229A65E36843F09E
:1012F0000203E3602946306802F0D9F9D5E705EB2F
:101300008502D3003344032283F85D20E36843F071
:101310000203E3602946306802F0C9F9C5E7F8B571
:10132000036803EB411303F5A064A26812F0040FF5
:1013300024D10E460546A26812F0200F25D02023A6
:10134000A36001EB8102D3001A46034493F83D30B9
:10135000012B19D18B000244002182F83D10334447
:10136000DA000244022382F85C30E36843F00203AF
:10137000E3603146006802F09AF905E00423A360B7
:10138000E36843F00203E360F8BDA26812F0400F87
:1013900034D1A26812F4007F4AD1A26812F0010F82
:1013A00051D1A26812F0080F62D1A26812F0100F9A
:1013B0006FD08A000A44D300034400229A650322B6
:1013C00083F85D2093F83D306BB901EB8102D300C7
:1013D000034493F83C3033B901EB8102D30003445A
:1013E000012283F83D20E36843F00203E3603146C5
:1013F000286802F05CF91023A360C5E78B00591838
:10140000CA000244042182F85D10012182F83D10D7
:101410003344DA00024400239365E36843F0020397
:10142000E3603146006802F042F94023A360ABE775
:10143000E36843F00203E360006802F038F94FF418
:101440000073A360A0E78F007A18D3000344002242
:101450009A65E36843F00203E360006802F027F94D
:101460000123A360B919C800284480F85D308BE7D8
:101470000823A360E36843F00203E360006802F01E
:1014800016F906EB8601C8002844052380F85D3074
:101490007AE7A26812F0800F39D1A26812F4806F47
:1014A00046D1A26812F0020F3FF46EAFE26822F05C
:1014B0000202E26001EB8101CA001146024492F887
:1014C0005D20012A48D0032A5AD0042A6CD0052A6C
:1014D00072D0062A01D0082A59D1B1003144CA007D
:1014E0002A44916D0131916503296BD9282202FBB1
:1014F000065200219165042182F85C10D3F8002582
:1015000022F0804242F00042C3F800253FE0E36849
:1015100043F00203E360006802F0C9F806EB8601BD
:10152000CB002B44062283F85D208023A3602BE7A9
:10153000E36843F00203E360006802F0B8F81023A8
:10154000A3604FF48063A36006EB8601CB002B44BD
:10155000082283F85D2017E70B460344012283F835
:101560005C2093F83F30023BDBB293420FD80B462E
:10157000034493F8512082F0010283F8512006E0E1
:1015800006EB8602D3000344022283F85C20022388
:10159000A36006EB8602D3002B4493F85C2031460F
:1015A000284605F0DDFFEFE606EB8602D300034494
:1015B000022283F85C20EAE7282303FB060383F872
:1015C0005C20E4E7282202FB0652022182F85C102C
:1015D00094E7F8B504460568284601F0EBFE0128BB
:1015E00000D0F8BD206801F0E1FE0028F9D02068A5
:1015F00001F0DCFE10F4001F03D023684FF400124A
:101600005A61206801F0D2FE10F4801F03D02368D5
:101610004FF480125A61206801F0C8FE10F0806F0C
:1016200003D023684FF080625A61206801F0BEFE4B
:1016300010F0020F02D0236802225A61206801F0E4
:10164000B5FE10F0005F25D1206801F0AFFE10F06C
:10165000807F31D1206801F0A9FE10F0080F2FD152
:10166000206801F0A3FE10F0007F30D1206801F067
:101670009DFE10F0100FB4D02268936923F0100380
:1016800093612046FFF7D2FA2268936943F0100372
:101690009361A6E7D5F8403423F02E03C5F8403413
:1016A000204605F057FF0121206801F087FE2368DE
:1016B0004FF000525A61C7E72046FFF768FCC9E7C0
:1016C000204605F03BFF236808225A61C8E72068DE
:1016D00001F0E8FF0746002604E0F1B22046FFF7DC
:1016E0001EFE0136A368B34212D906F00F0327FA93
:1016F00003F313F0010FF4D005EB4613D3F80035D4
:1017000013F4004FE9D0F1B22046FFF7AAFCE8E756
:1017100023684FF000725A61A8E738B590F8B832E4
:10172000012B0ED00446012580F8B852006801F064
:10173000CAFD2946206801F080FE002084F8B80226
:1017400038BD0220FCE790F8B832012B0BD010B561
:101750000446012380F8B832006802F0CFF8002078
:1017600084F8B80210BD0220704708B5006801F087
:1017700045FE08BD01EB8101CB00184490F85C00E8
:10178000704701EB8101CB001844C06C704708B56D
:10179000006801F0FEFE08BD08B5006801F0EEFE2D
:1017A00008BD0000002800F0BE80F8B5044690F89F
:1017B0003D30002B6BD0242384F83D302268136821
:1017C00023F00103136000F09FFE6268584B9A42B9
:1017D00062D8584B98428CBF00230123002B40F065
:1017E000A480554BA3FB00239B0C21684A6822F080
:1017F0003F021A434A6025682A6A22F03F0266685F
:101800004B498E424ED8013313432B622568E96958
:1018100021F44F4121F0FF016368454A93424BD8C0
:1018200001385B00B0FBF3F30133C3F30B03042B6C
:1018300038BF04230B43EB6121680B6823F0C0031E
:10184000E269206A024313430B6021688B6823F42A
:10185000034323F0FF032269E068024313438B60D4
:101860002168CB6823F0FF036269A0690243134338
:10187000CB602268136843F00103136000202064EA
:10188000202384F83D30206384F83E00F8BD80F8C2
:101890003C3005F00DFC8EE7284B98428CBF0023AE
:1018A00001239BE74FF4967101FB03F32449A1FB4D
:1018B00003139B090133A7E7A268BAB9461E03EBDD
:1018C0004307B6FBF7F60136C6F30B06B6FA86F603
:1018D000760936BBC2B9013803EB4303B0FBF3F31F
:1018E0000133C3F30B0242F40043A3E7461E03EBAC
:1018F000830707EB8707B6FBF7F60136C6F30B063F
:10190000B6FA86F67609E4E7013803EB830303EBC6
:101910008303B0FBF3F20132C2F30B0242F4404303
:1019200088E7012386E7012070470120AEE700BF6A
:10193000A08601007F841E0083DE1B43FF083D005C
:10194000D34D6210002800F0BF8070B5044690F8B7
:101950004130002B51D0022284F841202168CB690C
:1019600023F47B6323F00F03CB6123681A6263695E
:10197000934263D0E368002B46D11025A368202B47
:1019800000D86D00012000F0A7FE2369B3F5007FA9
:101990003CD0B0FBF5F000EB800043006269B3FB84
:1019A000F2F30533494AA2FB0323DB0803F00102EB
:1019B0009B1A5B081202991EFD2941D821690A432E
:1019C000216813430B622168CB6923F47B6323F006
:1019D0000F036268A0680243E0680243A069024303
:1019E000134343F40063CB61236A012B2ED0002004
:1019F0006064012384F8413070BD80F84030344B7E
:101A0000436305F08DFBA6E72025B7E7E36853B1F4
:101A1000AD00B0FBF5F000EB800043006269B3FB62
:101A2000F2F30533BEE7ED00B0FBF5F000EB80000C
:101A300043006269B3FBF2F30533B3E70022BAE770
:101A4000636C43F0100363640120D5E7214B6363AB
:101A50002268214B9A421FD04FF04022D36923F4D1
:101A60007B6323F00F03D36122681B4B9A4215D08E
:101A70004FF0402302221A622268174B9A4210D07C
:101A80004FF04021CA6992B26368B3F5007F0AD073
:101A9000C3B94FF4807608E0104ADFE7A3F580630E
:101AA000E8E70E49EEE74FF48076A068E568238BFF
:101AB0002B439BB203439BB23343134343F4006372
:101AC000CB6194E70026F0E701207047CDCCCCCC69
:101AD000531B00085D1D0008003800400034004022
:101AE000704708B5426A03681288DA60436A0233B5
:101AF0004362438D013B9BB24385438D9BB203B14F
:101B000008BD0268536823F0A0035360012380F8E6
:101B10004130FFF7E5FFF3E7704708B50368DA687F
:101B2000C36A1A80C36A0233C362438E013B9BB20D
:101B30004386438E9BB203B108BD0268536823F00D
:101B400060035360012380F84130FFF7E5FFF3E7BE
:101B5000704710B584B0044602689368039390F808
:101B60004130DBB2042B06D094F84130DBB2032BBA
:101B70002CD004B010BD039B13F0010F03D05368A9
:101B800013F0400F1FD1039B13F0400FECD02368DC
:101B90005A6812F0200FE7D05A6822F060025A60AB
:101BA000002301932368DA6801929B680193019BEB
:101BB000012384F84130636C43F0020363642046E0
:101BC000FFF7C6FFD0E7FFF7A8FFDCE7039B13F0A2
:101BD000020F04D023685B6813F0800F1DD1039BB4
:101BE00013F0080FC5D023685A6812F0200FC0D038
:101BF0005A6822F0A0025A600023029323689B686F
:101C00000293029B012384F84130636C43F0040388
:101C100063642046FFF79CFFABE72046FFF761FFB8
:101C2000DDE7704708B5436A9A1C426202681B8868
:101C3000D360438D013B9BB24385438D9BB23BB93F
:101C40000268536823F0A0035360438E9BB203B134
:101C500008BD012380F84130FFF7E3FFF8E70000FB
:101C600008B50268144B9A421BD04FF04023DA6843
:101C7000C36A991CC1621A80438E013B9BB24386A2
:101C8000438E9BB263B902680B4B9A420CD04FF063
:101C90004022536823F060035360438D9BB22BB105
:101CA00008BDA3F58063E2E7044AF2E7012380F868
:101CB0004130FFF7B6FFF3E7003800400034004042
:101CC00008B5436A9A1C42621A880168124B99420D
:101CD00017D04FF04023DA60438D013B9BB2438520
:101CE000438D9BB263B902680B4B9A420CD04FF004
:101CF0004022536823F0A0035360438E9BB22BB164
:101D000008BDA3F58063E6E7044AF2E7012380F803
:101D10004130FFF786FFF3E7003800400034004011
:101D200008B50368DA68C36A991CC1621A80438ED9
:101D3000013B9BB24386438E9BB23BB9026853681A
:101D400023F060035360438D9BB203B108BD0123B0
:101D500080F84130FFF765FFF8E7000010B586B066
:101D6000044603689A680592704A93426FD04FF018
:101D70004022916804915B680393536802936368FF
:101D8000B3F5007F01D0002B70D1059B13F0020F3B
:101D900003D0039B13F0800F5CD1049B13F0010F61
:101DA00003D0029B13F0400F58D1049B13F0400F57
:101DB00024D0029B13F0200F20D022685B4B9A4264
:101DC00050D04FF04022536823F0600353602268E4
:101DD000536823F0A0035360002300932368DA685C
:101DE00000929B680093009B012384F84130636C50
:101DF00043F0020363642046FFF7AAFE059B13F03D
:101E0000080F22D0039B13F0200F1ED022685368C6
:101E100023F0A00353602268444B9A4224D04FF031
:101E20004022536823F0600353600023019323682A
:101E30009B680193019B012384F84130636C43F05C
:101E4000040363642046FFF783FE06B010BDA2F5CD
:101E500080628EE72046FFF7E5FE9EE72046FFF70B
:101E6000FFFEA2E7324AAEE7314ADAE7049B13F0FD
:101E7000020F03D0029B13F0800F4AD1059B13F091
:101E8000010F03D0039B13F0400F46D1059B13F0C5
:101E9000400F1CD0039B13F0200F18D0226853680A
:101EA00023F0600353602268204B9A4239D04FF0F0
:101EB0004022536823F0A0035360012384F841308B
:101EC000636C43F0020363642046FFF741FE049B0A
:101ED00013F0080FB9D0029B13F0200FB5D0226881
:101EE000124B9A421FD04FF04022536823F0A003B8
:101EF00053602268536823F060035360012384F821
:101F00004130636C43F0040363642046FFF720FE16
:101F10009BE72046FFF7D4FEB0E72046FFF700FF1F
:101F2000B4E7034AC5E7024ADFE700BF00380040D4
:101F300000340040002800F0BB8170B582B0044638
:101F4000036813F0010F3BD0A74B9B6803F00C0311
:101F5000042B2CD0A44B9B6803F00C03082B21D03E
:101F60006368B3F5803F4FD0B3F5A02F52D09E4B9E
:101F70001A6822F480321A601A6822F480221A60E9
:101F80006368002B50D0FEF7D1FA0546964B1B68CC
:101F900013F4003F14D1FEF7C9FA401B6428F5D9A9
:101FA00003208AE1904B5B6813F4800FD8D08E4BEE
:101FB0001B6813F4003F03D06368002B00F07A81A4
:101FC000236813F0020F55D0874B9B6813F00C0F5A
:101FD0003ED0854B9B6803F00C03082B33D0E3689D
:101FE000002B68D0814B01221A60FEF79FFA05464C
:101FF0007D4B1B6813F0020F54D1FEF797FA401B7C
:102000000228F5D9032058E1774A136843F4803356
:102010001360B5E7744B1A6842F480221A601A689C
:1020200042F480321A60ABE7FEF780FA05466E4B49
:102030001B6813F4003FC3D0FEF778FA401B6428F6
:10204000F5D9032039E1684B5B6813F4800FC6D1E2
:10205000654B1B6813F0020F04D0E368012B01D01D
:1020600001202AE1604A136823F0F803216943EA5A
:10207000C1031360236813F0080F40D0636963B392
:102080005B4B01221A60FEF751FA0546564B5B6F17
:1020900013F0020F33D1FEF749FA401B0228F5D99D
:1020A00003200AE1504A136823F0F803216943EA48
:1020B000C1031360DEE74D4B00221A60FEF736FACB
:1020C0000546494B1B6813F0020FD3D0FEF72EFADA
:1020D000401B0228F5D90320EFE0454B00221A608F
:1020E000FEF724FA0546404B5B6F13F0020F06D053
:1020F000FEF71CFA401B0228F5D90320DDE0236817
:1021000013F0040F79D0384B1B6C13F0805F33D180
:1021100000230193344B1A6C42F080521A641B6CFA
:1021200003F080530193019B0125324B1B6813F48C
:10213000807F23D0A368012B34D0052B38D02A4BC5
:102140001A6F22F001021A671A6F22F004021A674E
:10215000A368002B36D0FEF7E9F90646224B1B6F29
:1021600013F0020F48D1FEF7E1F9801B41F28833EA
:102170009842F3D90320A0E00025D6E71D4A136852
:1021800043F480731360FEF7D1F90646194B1B68C0
:1021900013F4807FCED1FEF7C9F9801B0228F5D950
:1021A00003208AE0104A136F43F001031367CFE75F
:1021B0000D4B1A6F42F004021A671A6F42F00102C7
:1021C0001A67C5E7FEF7B2F90646074B1B6F13F017
:1021D000020F11D0FEF7AAF9801B41F28833984212
:1021E000F3D9032069E000BF0038024000004742F5
:1021F000800E474200700040E5B9A369002B5BD018
:10220000304A926802F00C02082A58D0022B17D0EC
:102210002D4B00221A60FEF789F90446294B1B68F2
:1022200013F0007F42D0FEF781F9001B0228F5D998
:10223000032042E0234A136C23F080531364DCE74D
:10224000214B00221A60FEF771F905461D4B1B68F1
:1022500013F0007F06D0FEF769F9401B0228F5D97C
:1022600003202AE0E369226A1343626A43EA821385
:10227000A26A5208013A43EA0243E26A43EA02636D
:10228000104A5360104B01221A60FEF74FF90446C2
:102290000C4B1B6813F0007F06D1FEF747F9001BBB
:1022A0000228F5D9032008E0002006E0002004E021
:1022B00001207047012000E0002002B070BD012025
:1022C000FBE700BF0038024060004742324B9B688A
:1022D00003F00C03042B5CD0082B01D02F4870476F
:1022E0002DE9F04B2C4B5A6802F03F025B6813F467
:1022F000800F2BD0284B5B68C3F388131E46002742
:102300005C010025E41A65EB0705A90141EA946127
:10231000A001001B61EB0501CB0043EA5073C40030
:10232000A01943EB07014B0243EAD0534402204675
:1023300019460023FDF74CFF174B5B68C3F30143BD
:1023400001335B00B0FBF3F0BDE8F08B124B5B6830
:10235000C3F388131E4600275C010025E41A65EBD1
:102360000705A90141EA9461A001001B61EB050189
:10237000CB0043EA5073C400A01943EB07018B0262
:1023800043EA90538402204619460023FDF720FFBC
:10239000D2E70348704700BF003802400024F40031
:1023A00000127A00002800F09D8070B504464F4B63
:1023B0001B6803F00F038B4209D2CBB24B4A137058
:1023C000136803F00F038B4201D0012070BD236816
:1023D00013F0020F17D013F0040F04D0444A93688F
:1023E00043F4E0539360236813F0080F04D0404A8D
:1023F000936843F4604393603D4A936823F0F0038D
:10240000A068034393600D46236813F0010F32D098
:102410006368012B21D09A1E012A25D9344A1268FB
:1024200012F0020F60D032498A6822F0030213438F
:102430008B60FEF77BF806462D4B9B6803F00C0380
:102440006268B3EB820F16D0FEF770F8801B41F282
:1024500088339842F0D90320B8E7254A126812F46D
:10246000003FE0D10120B1E7214A126812F0007F5D
:10247000D9D10120AAE71D4B1B6803F00F03AB4223
:1024800009D9EAB2194B1A701B6803F00F03AB426B
:1024900001D001209AE7236813F0040F06D0144AF4
:1024A000936823F4E053E1680B439360236813F0CF
:1024B000080F07D00E4A936823F46043216943EA6A
:1024C000C1039360FFF702FF094B9B68C3F303133B
:1024D000084AD35CD840084B1860002004F004FF81
:1024E000002073E70120704701206FE7003C0240A5
:1024F00000380240A07900082C000020014B186829
:10250000704700BF2C00002008B5FFF7F7FF044B11
:102510009B68C3F38223034AD35CD84008BD00BF45
:1025200000380240B079000808B5FFF7E7FF044B18
:102530009B68C3F34233034AD35CD84008BD00BF55
:1025400000380240B07900080F2303600B4B9A68F3
:1025500002F0030242609A6802F0F00282609A6818
:1025600002F4E052C2609B68DB0803F4E0530361AD
:10257000034B1B6803F00F030B60704700380240E9
:10258000003C024030B583B00446036813F0050FE9
:1025900006D1236813F0020F2ED1002003B030BD06
:1025A000494B00221A60FDF7C1FF0546474B1B68E7
:1025B00013F0006F06D0FDF7B9FF401B0228F5D9D4
:1025C0000320EBE76268A3681B0743EA82133F4AD4
:1025D000C2F884303C4B01221A60FDF7A7FF054684
:1025E0003A4B1B6813F0006FD3D1FDF79FFF401BE0
:1025F0000228F5D90320D1E700230193334B1A6C4D
:1026000042F080521A641B6C03F080530193019BCB
:102610002F4A136843F480731360FDF787FF054664
:102620002B4B1B6813F4807F06D1FDF77FFF401B07
:102630000228F5D90320B1E7244B1B6F13F4407334
:1026400012D0E26802F440729A420DD01F4B1A6F0A
:1026500022F440721F4901200860002008601A67B8
:102660001B6F13F0010F13D1E36803F44072B2F54E
:10267000407F1ED0154A936823F4F81393601349E2
:102680000B6FE268C2F30B0213430B67002085E770
:10269000FDF74CFF05460D4B1B6F13F0020FE3D106
:1026A000FDF744FF401B41F288339842F3D90320E1
:1026B00074E706498A6822F4F81223F0704323F481
:1026C000407313438B60DAE76800474200380240EA
:1026D00000700040400E474201282AD1174B9B68EA
:1026E00013F4000303D0012B25D115487047134B79
:1026F0005B6813F4800F14D0104B5B6803F03F034A
:102700001048B0FBF3F00D4AD2F88430C3F38813BD
:1027100000FB03F0D2F88430C3F30273B0FBF3F094
:102720007047064B5B6803F03F030748B0FBF3F0CC
:10273000E9E7002070470020704700BF00380240E2
:102740000080BB0000127A000024F40000283BD077
:1027500010B504460023836290F85130002B2ED030
:10276000022384F851302268136823F04003136079
:102770006368A2681343E2681343226913436269E2
:102780001343A26902F400721343E2691343226AFD
:102790001343A16A22680B431360638B03F00403A5
:1027A000616A22680B4353602268D36923F4006393
:1027B000D36100206065012384F8513010BD80F89A
:1027C000503004F0F9FCCBE70120704770470268F5
:1027D000D36843F00103D3600268936803F00703F2
:1027E000062B03D0136843F00103136000207047E9
:1027F000704770477047704710B5044603681A6900
:1028000012F0020F11D0DA6812F0020F0DD06FF043
:1028100002021A610123037703689B6913F0030F17
:1028200070D0FFF7E6FF0023237723681A6912F0C0
:10283000040F12D0DA6812F0040F0ED06FF0040209
:102840001A610223237723689B6913F4407F5FD0CA
:102850002046FFF7CEFF0023237723681A6912F082
:10286000080F12D0DA6812F0080F0ED06FF00802CD
:102870001A61042323772368DB6913F0030F4ED01A
:102880002046FFF7B6FF0023237723681A6912F06A
:10289000100F12D0DA6812F0100F0ED06FF0100285
:1028A0001A61082323772368DB6913F4407F3DD046
:1028B0002046FFF79EFF0023237723681A6912F052
:1028C000010F03D0DA6812F0010F36D123681A69BC
:1028D00012F0800F03D0DA6812F0800F34D1236831
:1028E0001A6912F0400F03D0DA6812F0400F32D1AB
:1028F00023681A6912F0200F03D0DA6812F0200F53
:1029000030D110BDFFF774FF2046FFF773FF8AE751
:102910002046FFF76DFF2046FFF76CFF9BE7204640
:10292000FFF766FF2046FFF765FFACE72046FFF79D
:102930005FFF2046FFF75EFFBDE76FF001021A61FF
:10294000204604F085FBC1E76FF080021A61204643
:1029500000F08EF8C3E76FF040021A612046FFF7DF
:102960004AFFC5E76FF020021A61204600F07FF8A9
:10297000C7E700000368304A904212D0B0F1804FA0
:102980000FD0A2F57C4290420BD002F580629042BB
:1029900007D002F58062904203D002F5784290425F
:1029A00003D123F070034A681343234A90422AD08C
:1029B000B0F1804F27D0A2F57C42904223D002F59F
:1029C000806290421FD002F5806290421BD002F5D7
:1029D0007842904217D002F57052904213D002F51F
:1029E000806290420FD002F5806290420BD0A2F537
:1029F0009832904207D002F58062904203D002F5EF
:102A00008062904203D123F44073CA68134323F0D9
:102A100080034A69134303608B68C3620B68836257
:102A2000054B984203D003F58063984201D10B69AE
:102A3000036301234361704700000140A8B110B552
:102A4000044690F83D305BB1022384F83D30211DEF
:102A50002068FFF78FFF012384F83D30002010BD70
:102A600080F83C30FFF7B2FEEEE701207047704778
:102A700070470268D36823F0C003D360202380F836
:102A8000393070470268D36823F49073D3600268CA
:102A9000536923F001035361202380F83A307047D3
:102AA00090F83930DBB2212B2AD18368B3F5805FEF
:102AB00016D0036A5A1C02621A7803685A60C38CE3
:102AC000013B9BB2C384EBB90268D36823F0800357
:102AD000D3600268D36843F04003D360002070479E
:102AE000036A1B880268C3F30803536003691BB9B8
:102AF000036A02330362E2E7036A01330362DEE73B
:102B000002207047002070472DE9F8430446026810
:102B1000136923F44053C1680B431361836802694E
:102B2000134342691343C2691A430168CB6823F413
:102B3000164323F00C031343CB600268536923F45C
:102B4000407381690B435361C369B3F5004F60D093
:102B50000368B84A934200F0148102F58062934200
:102B600000F00F81FFF7D0FC00EB800000EB80004D
:102B70006568AD00B0FBF5F5AF4FA7FB05356D09F6
:102B80002E01FFF7C1FC00EB800000EB80006568C0
:102B9000AD00B0FBF5F9FFF7B7FC00EB800000EBF0
:102BA00080006568AD00B0FBF5F5A7FB05356D0944
:102BB0004FF0640808FB15952D013235A7FB05354C
:102BC0006D0905F0F0053544FFF79EFC00EB800031
:102BD00000EB80006668B600B0FBF6F6FFF794FCE9
:102BE00000EB800000EB800063689B00B0FBF3F01B
:102BF000A7FB0030400908FB10684FEA081808F1ED
:102C00003208A7FB0837C7F3431723682F449F6098
:102C10000DE10368874A93425BD002F580629342DC
:102C200057D0FFF771FC00EB800000EB8000656877
:102C30006D00B0FBF5F5804FA7FB05356D092E0142
:102C4000FFF762FC00EB800000EB800065686D0020
:102C5000B0FBF5F9FFF758FC00EB800000EB8000BB
:102C600065686D00B0FBF5F5A7FB05356D094FF004
:102C7000640808FB1595ED003235A7FB05356D0995
:102C80006D0005F4F8753544FFF73EFC00EB80005D
:102C900000EB800066687600B0FBF6F6FFF734FCC8
:102CA00000EB800000EB800063685B00B0FBF3F397
:102CB000A7FB03235B0908FB13684FEAC80808F168
:102CC0003208A7FB0837C7F3421723682F449F60D9
:102CD000ADE0FFF729FC00EB800000EB80006568A9
:102CE0006D00B0FBF5F5544FA7FB05356D092E01BE
:102CF000FFF71AFC00EB800000EB800065686D00B8
:102D0000B0FBF5F9FFF710FC00EB800000EB800052
:102D100065686D00B0FBF5F5A7FB05356D094FF053
:102D2000640808FB1595ED003235A7FB05356D09E4
:102D30006D0005F4F8753544FFF7F6FB00EB8000F5
:102D400000EB800066687600B0FBF6F6FFF7ECFB60
:102D500000EB800000EB800063685B00B0FBF3F3E6
:102D6000A7FB03235B0908FB13684FEAC80808F1B7
:102D70003208A7FB0837C7F3421723682F449F6028
:102D800055E0FFF7D1FB00EB800000EB80006568A9
:102D9000AD00B0FBF5F5284FA7FB05356D092E01F9
:102DA000FFF7C2FB00EB800000EB80006568AD0020
:102DB000B0FBF5F9FFF7B8FB00EB800000EB8000FB
:102DC0006568AD00B0FBF5F5A7FB05356D094FF063
:102DD000640808FB15952D013235A7FB05356D09F3
:102DE00005F0F0053544FFF79FFB00EB800000EB9A
:102DF00080006668B600B0FBF6F6FFF795FB00EBC7
:102E0000800000EB800063689B00B0FBF3F0A7FB41
:102E10000030400908FB10684FEA081808F1320832
:102E2000A7FB0837C7F3431723682F449F60BDE80B
:102E3000F88300BF001001401F85EB5158B310B557
:102E4000044690F839300BB3242384F839302268D3
:102E5000D36823F40053D3602046FFF755FE226861
:102E6000136923F4904313612268536923F02A0302
:102E700053612268D36843F40053D3600020E063B9
:102E8000202384F8393084F83A3010BD80F8383087
:102E900004F0C8F9D8E70120704790F83A30DBB267
:102EA000202B20D109B312B390F83830012B20D059
:102EB00081628285C2850023C363222280F83A2082
:102EC00080F838300168CA6842F48072CA600168CC
:102ED0004A6942F001024A610168CA6842F0200270
:102EE000CA601846704702207047012070470120D1
:102EF000704702207047000038B590F83940E4B2BE
:102F0000202C31D1002931D0002A31D090F838302E
:102F1000012B2FD013460446012280F8382001628D
:102F20008384C3840025C563212280F83920026B85
:102F30001148D063226B11481064226B1048D06492
:102F4000226B156522680432206BFDF73FFC236875
:102F50006FF040021A6084F838502268536943F0D9
:102F600080035361284600E0022038BD0120FCE7C1
:102F70000120FAE70220F8E7852F0008D12F00088A
:102F80007730000808B5836B0268126812F4807FFE
:102F90000CD10022DA8419684A6922F080024A6161
:102FA0001A68D36843F04003D36008BD184604F0A4
:102FB00029F8FAE708B50168CB6823F04003CB6035
:102FC000202380F8393004F01DF8002008BD704738
:102FD00008B5806BFFF7FBFF08BD08B590F83A30E5
:102FE000DBB2222B45D18368B3F5805F0ED0036935
:102FF00003BB03685A68836A591C81621A70C38DC7
:10300000013B9BB2C385F3B1002033E0826A0369C0
:1030100043B903685B68C3F308031380836A023310
:103020008362ECE703685B68DBB21380836A013379
:103030008362E4E703685B68826A511C816203F083
:103040007F031370DBE70268D36823F02003D360AB
:103050000268D36823F48073D3600268536923F055
:1030600001035361202380F83A3003F0CFFF0020A2
:1030700000E0022008BD10B5846B23685A6994F8FB
:103080003930DBB2212B10D023685A6902F040029C
:1030900094F83A30DBB2222B11D0E36B43F01003EB
:1030A000E363204603F0B0FF10BD02F08002002A67
:1030B000EAD00023E3842046FFF7DBFCE4E7002AA4
:1030C000EBD00023E3852046FFF7DCFCE5E70000BA
:1030D00010B5044602681368D168526913F00F00F6
:1030E00005D113F0200F02D011F0200F53D100288A
:1030F00067D012F0010202D111F4907F61D013F079
:10310000010F06D011F4807F03D0E06B40F0010086
:10311000E06313F0040F04D01AB1E06B40F002003A
:10312000E06313F0020F04D01AB1E06B40F004002A
:10313000E06313F0080F04D01AB1E26B42F008020A
:10314000E263E26B002A48D013F0200F02D011F0A6
:10315000200F24D123685B6903F04003E26B12F077
:10316000080F00D13BB32046FFF78CFC23685A6957
:1031700012F0400F1BD05A6922F040025A61636B73
:103180008BB11A4A1A65606BFDF75AFB28B3606B66
:10319000036D984721E02046FFF71FFF1DE0204602
:1031A000FFF71BFFD6E7204603F02EFF15E0204671
:1031B00003F02AFF11E0204603F026FF0023E3631B
:1031C0000BE013F0800F02D011F0800F06D113F046
:1031D000400F02D011F0400F04D110BD2046FFF780
:1031E0005FFCFAE72046FFF7E5FEF6E7F13100085D
:1031F00008B5806B0023C385C38403F005FF08BDB9
:10320000002301330C4A934211D80269002AF8DAEC
:10321000036943F00103036100230133064A93422B
:1032200007D8026912F0010FF7D100207047032080
:1032300070470320704700BF400D030084B010B5F5
:10324000044603A880E80E00089B012B1FD1A36B46
:1032500023F48033A363E36823F4840323F040035F
:10326000E360E36823F44013E3600F9B012B09D074
:103270002046FFF7C5FF069B012B1BD0BDE8104081
:1032800004B07047E36843F48013E360F0E7E36859
:1032900043F04003E3602046FFF7B2FF0C9B23B9E5
:1032A000A36B43F48033A363E5E7A36B23F480337C
:1032B000A363E0E7A36843F00603A360A36843F0B9
:1032C0002003A360DAE7836843F0010383600020F2
:1032D0007047836823F0010383600020704708B5BE
:1032E000C36823F0C043C360012909D069B9C3682A
:1032F00043F08043C3603220FDF71EF9002008BD73
:10330000C36843F00053C360F5E70120F7E700000E
:10331000890141F02001016100230133054A9342F4
:1033200005D8026912F0200FF7D100207047032062
:10333000704700BF400D03001023036100230133D9
:10334000054A934205D8026912F0100FF7D1002008
:1033500070470320704700BF400D030070B49DF814
:103360000C4064B903339D0807E000EB023303F51A
:10337000805351F8046B1E600134AC42F5D3002039
:1033800070BC704703329208002393420CD210B4F1
:1033900000F58054246841F8044B01339342F7D37D
:1033A00008465DF8044B70470846704742698069DB
:1033B00010407047406900F00100704710B400F5FC
:1033C0008064D0F8003423F00303C0F80034D0F850
:1033D000003401F003021343C0F80034012905D082
:1033E000022907D000205DF8044B70474BF680336C
:1033F0006360F7E741F270736360F3E730B583B061
:10340000044600250195D0F840340193019B23F038
:103410002E030193019B43F48073C0F84034642071
:10342000FDF78AF8019B23F48073C4F840340A2026
:10343000FDF782F8284603B030BD82B00023019327
:10344000D0F840340193019B23F02E030193019B9C
:1034500013F4805F01D101290CD0019B13F4805F2C
:1034600005D021B9019B23F48053C0F840340020DB
:1034700002B07047019B43F48053C0F84034ECE73E
:1034800084B038B5044605A880E80E002546002320
:10349000C4F8003EA36B43F40013A363A36B23F4AF
:1034A0000023A363A36B23F48023A363E36B13F4D0
:1034B000807F10D0079B032B06D0D4F8003423F074
:1034C0000403C4F800340CE0D4F8003443F00403DF
:1034D000C4F8003405E0D4F8003423F00403C4F841
:1034E000003410212046FFF713FF2046FFF724FF8A
:1034F000002209E005EB42134FF0FF31C3F8081535
:103500000021C3F80C150132069B9342F2D8012129
:103510002046FFF792FFC820FDF70EF80023A361B5
:103520004FF0FF336361E36B13F4807F17D04FF4E8
:103530000073636203F18073A3620D4BC4F8003122
:10354000089B1BB9A36943F01003A361A269094B4F
:103550001343A3610020BDE8384004B070478023C6
:10356000636203F5C003A362034BC4F80031E7E7CD
:103570000003E000080020A3E000400082B0002328
:103580000193D0F8403401930198C0F3414002B058
:10359000704700F58060806880B27047F0B50646DD
:1035A0009DF8184000EB411505F5A0604FF0FF377E
:1035B0008760032C65D8DFE804F00256021840F259
:1035C0009D47C76012F0800F09D1F76B17F4807F19
:1035D00059D0C76847F06007C76000200CE0C76893
:1035E00047F48077C760002006E040F29D67C7601F
:1035F00012F0800F31D1002006F5806ED6F81874D5
:1036000001F00F014FF0010C0CFA01F13943C6F83B
:103610001814B16941F00071B16112F0800F34D11A
:1036200000269DF81410022932D000219B0503F0DA
:10363000FE53D20202F4F0421343A20402F44022E9
:103640001343BDF81C20C2F30A02134333430B4358
:10365000C5F80035032C1ED0F0BDC76847F480774D
:10366000C7600020C8E740F22527C76012F0800F2E
:1036700001D10020C0E7C76847F4C077C7600020C9
:10368000BAE70120B8E70020B6E74FF40046C8E7E4
:103690004FF40031CAE7D5F8003543F00053C5F8C0
:1036A0000035D9E700F58060406980B2704710B4FA
:1036B00000EB411101F5A064D1F80035C3F381435B
:1036C0003BB3022B25D0D1F8003543F08043C1F83D
:1036D0000035D0F8103413F47F0F49D1D1F80035FC
:1036E00023F00043C1F80035D1F8003543F0004322
:1036F000C1F80035D1F8003523F40043C1F8003596
:1037000000230133B3F57A7F27D82268002AF8DB3B
:1037100023E0D1F8003543F08043C1F80035C36A97
:1037200013F47F0F1DD1D1F8003523F00043C1F809
:103730000035D1F8003543F00043C1F80035D1F829
:10374000003523F40043C1F8003500230133B3F5FD
:103750007A7F02D82268002AF8DB00205DF8044B4B
:103760007047D1F8003543F00043C1F80035F4E765
:10377000D1F8003543F00043C1F80035EDE7000013
:1037800000EB4111064AC1F81025D1F8003523F0AD
:10379000804343F00043C1F800350020704700BF6C
:1037A0000000088070B582B04C78C36B13F4807F42
:1037B00007D00B792BB912B94B79012B11D0012A03
:1037C00013D00B69E3B10D892B44013BB3FBF5F337
:1037D0009BB2B3F5807F14D92D020D614FF4807335
:1037E0000FE02146FFF7CCFF75E000EB4413D3F860
:1037F0000C5525F06005C3F80C5500234B71E0E72C
:103800000123CD781DB10D8905FB03F50D610D690F
:10381000C5F31205374E06EAC3432B438D7A6D0775
:1038200005F0C04500EB44142B43C4F8103512B129
:10383000CB68C4F8143500F58066B36813F0010F47
:10384000D4F8003523F00053C4F80035D4F800351F
:103850000CBF4FF0005500252B43C4F80035D4F8B9
:103860000055254B1D601D6825F080451D60CB78F7
:10387000C3B1214D2B6843F400432B601E4B1D68E0
:1038800045F000451D601B68C4F800351ABBCB78B5
:103890000BBB0B69FBB1CA79032A14D8DFE802F02D
:1038A000081E081E144D2B6823F400432B60E5E727
:1038B0000333C26A92B2C3F38F039A4203D283697D
:1038C00043F020038361CC684A780B8A0021009181
:1038D0002146FFF743FD002002B070BD033332697B
:1038E00092B2C3F38F039A42EDD2836943F08063AF
:1038F0008361E8E70000F81FB000002070B50546BE
:103900000446FFF7E6FC10212846FFF701FD284694
:10391000FFF712FD00220AE004EB4211D1F8003556
:1039200023F0802343F08043C1F8003501320F2A91
:10393000F2D90020034600E001300F2813D804EB31
:10394000401606F5A061D6F8002522F4004242F0A8
:103950004042C6F800250133B3F57A7FECD80A68F7
:10396000002AF8DBE8E74FF0FF33C5F814346B6149
:103970002846FFF7A8FC002070BD0020704708B55E
:103980002122027420224274002242828282072273
:10399000C28200F0C5FF08BD08B5A1220274212231
:1039A00042740022428282820722C28200F0B8FF63
:1039B00008BD38B50446D0F87833D9694031FFF7EF
:1039C000EBFF054620B9D4F8C833022120469847BA
:1039D000284638BD38B50546D0F87833DC692178FB
:1039E00079B9217BB1B9617BF1B9D5F87833D86960
:1039F00028B103F0EFFED5F878330022DA61002019
:103A000038BD01F0EAF82178284601F0FCF80023DF
:103A10002370E6E7284601F0E0F8217B284601F014
:103A2000F2F800232373DEE7284601F0D6F8617B25
:103A3000284601F0E8F800236373D6E770B584B038
:103A4000044601230222114600F00CFBFF2800F07F
:103A5000A18006460146204600F0FAFAD4F87853D1
:103A6000502003F0AFFEE861D4F87833DD691A2303
:103A700003FB064393F84A3313F0800F72D1697841
:103A8000204601F0AFF80146287094F81C336A789C
:103A9000688902900320019094F81D03009020464D
:103AA00001F08BF800222978204603F0BDFD0023A9
:103AB0001A460A21204600F0D5FAFF286CD01A23B6
:103AC00003FB004393F84A3313F0800F52D1AB73DA
:103AD0001A2303FB0043B3F84C332B831A2303FB55
:103AE000004393F8523313F0800F4BD1AB731A237A
:103AF00003FB0040B0F854332B83A97B204601F030
:103B000071F86873E97B204601F06CF8287394F82B
:103B10001C33AA7B697B288B02900226019694F8BD
:103B20001D030090204601F048F894F81C33EA7B0E
:103B3000297B688B0290019694F81D030090204623
:103B400001F03BF8002685F84C603246697B204640
:103B500003F06AFD3246297B204603F065FD3046BE
:103B600004B070BD6B701A2303FB0646B6F84C33E5
:103B70006B8184E7EB731A2303FB0043B3F84C33E8
:103B80006B83ABE7EB731A2303FB0040B0F85433AD
:103B90006B83B2E70220E3E70220E1E7704730B52C
:103BA00083B00546D0F87833DC6994F84D30012BAA
:103BB00003D0022B19D003B030BD606A228B904233
:103BC0000AD9637BE16901200090284600F0BDFF1F
:103BD000022384F84D30EEE7637BE1690122009215
:103BE00082B2284600F0B1FFF2E7617B03F008FDE6
:103BF000012810D00228DED1012384F84D3004239F
:103C0000C5F8D43300231A4605F57571D5F8CC03F1
:103C100001F042F9CFE7636A228B934215D99B1AD0
:103C20006362E3691A44E261636A8BB1012384F839
:103C30004D300423C5F8D43300231A4605F57571B9
:103C4000D5F8CC0301F028F9B5E700236362EBE770
:103C5000002384F84D302846FFF7A0FFE9E77047BE
:103C600038B50546D0F87833DC6994F84E30032B2C
:103C700002D0042B09D038BD237B628B216A00F06F
:103C80007AFF042384F84E30F5E7217B03F0B8FC7B
:103C90000128F0D1217B284603F0ACFCA36A8342C3
:103CA0000BD0628B824208D21B1AA362236A18448B
:103CB0002062032384F84E3005E0002384F84E3060
:103CC0002846FFF7CCFF0423C5F8D43300231A4657
:103CD00005F57571D5F8CC0301F0DEF8CBE7704738
:103CE00038B50546D0F87833DC6994F84C30042BAD
:103CF00004D8DFE803F04C05163C4300012347E0FD
:103D0000A16CFFF73CFE034630B1012840D00423EC
:103D100084F84C3001233BE0022384F84C3001232B
:103D200036E004F14001FFF737FE0346C0B9002337
:103D300084F84C30636C23F07F42A16C4B6823F015
:103D40007F439A4201D0012322E0226C0B689A4201
:103D500001D001231CE02846FFF7C1FF012317E033
:103D6000012815D0042384F84C30012310E0FFF71C
:103D700016FF2846FFF774FF012309E0002100F039
:103D80009BFE38B9002384F84C30012300E0002367
:103D9000184638BD0123FBE7002305E003F1E002EC
:103DA000002140F8221001330E2BF7D9002304E044
:103DB000C218002182F81C110133B3F5007FF7D33C
:103DC00000230370437001228270C0F8BC33027676
:103DD00040218171437680F81C3380F81D231846FA
:103DE000704708B50378DBB20B2B00D008BDD0F8C4
:103DF0007833002BFAD09B699847F7E770B584B009
:103E000004464378072B00F2D480DFE803F0042C4B
:103E1000365F68729BB7082100F0D1FD18B101250B
:103E2000284604B070BD94F82923A271012565705D
:103E300094F81C33217902920026019694F81D23F0
:103E400000928022204600F0B8FE94F81C3361797D
:103E5000A2790292019694F81D23009232462046E0
:103E600000F0ABFEDCE7122100F0A9FD002840F0D5
:103E7000A280022363700125D2E7012100F0E9FD51
:103E800008B10125CCE7022003F0E7FB012584F807
:103E90001C53032363702179A379029300260196B2
:103EA00094F81D3300932B468022204600F085FEB7
:103EB00094F81C336179A2790292019694F81D233B
:103EC00000923246204600F078FEA9E7092100F072
:103ED0008FFD002871D1042363700125A0E7B0F89D
:103EE000361300F085FD002869D105236370012594
:103EF00096E790F83013B1B1FF2300F58E7200F011
:103F000090FD08B101258BE7062363700523C4F8F3
:103F1000D43300231A4604F57571D4F8CC0300F0AD
:103F2000BBFF01257CE7062343700523C0F8D4338B
:103F300000231A4600F57571D0F8CC0300F0ACFFF1
:103F400001256DE790F8311349B1FF2300F58E721A
:103F500000F067FDA8BB07236370012560E7072316
:103F600043700523C0F8D43300231A4600F5757159
:103F7000D0F8CC0300F090FF012551E790F8321300
:103F800051B1FF2300F58E7200F04BFD054600286D
:103F90003FF446AF012543E70523C0F8D43300239F
:103FA0001A4600F57571D0F8CC0300F075FF0025B6
:103FB00036E7012534E7012532E7012530E7012501
:103FC0002EE701252CE7000038B338B504460D462E
:103FD00080F8C0230023C0F87833C0F87C33FFF7A3
:103FE000DBFE0DB1C4F8C85300220421102000F0FC
:103FF000F3FEC4F8CC030A4A0A4B136080235361D2
:10400000182393612146084800F050FEC4F8D003FD
:10401000204603F0B7FA002038BD0220704700BFE9
:10402000984B0020BC790008854300080A4659B126
:10403000D0F87C3353B9591CC0F87C13DC3300EB47
:1040400083004260002070470220704702207047C2
:1040500090F838338B4203D980F820130020704742
:104060000220704770B4064600200AE01A2404FBC0
:10407000056595F845439C421AD0FF2B18D0441C87
:10408000E0B2012813D805461A2404FB006494F812
:1040900043438C4201D0FF29F1D11A2404FB05646B
:1040A00094F844439442E1D0FF2AE8D1DEE7FF20B0
:1040B00070BC704710B5044603F0DCFA01212046BD
:1040C00003F0A4FA002010BDC0F8BC13704708B577
:1040D000D0F8BC330133C0F8BC33FFF782FE08BD13
:1040E000012380F81F337047002380F81F33704787
:1040F00090F81F03704730B587B0044602238DF84F
:104100001730FFF7F5FF38B923782BB12378DBB2EE
:10411000032B01D0032323702378DBB20B2B65D84C
:10412000DFE813F00C0023002A002101640067007F
:10413000FA0079008E00A200BE00180194F81E3328
:10414000002B53D001252570C82003F086FA2046A5
:1041500003F0A0FAC4F8D45300231A4604F575718D
:10416000D4F8CC0300F098FE40E094F81F33012B04
:104170003CD10223237039E0642003F06EFA20461C
:1041800003F02AFA84F81D0305232370002120463A
:1041900000F028FD60718021204600F023FD0146DB
:1041A000207194F81C33A27902920025019594F8AD
:1041B0001D2300928022204600F0FFFC94F81C335F
:1041C0006179A2790292019594F81D2300922A4602
:1041D000204600F0F2FC0123C4F8D4332B462A46D3
:1041E00004F57571D4F8CC0300F056FE002007B03A
:1041F00030BD2046FFF702FE0028F7D1002384F8E7
:10420000203394F83333012B02D007232370EDE7DA
:1042100008232370EAE7D4F8C833002BE6D0012145
:1042200020469847082323700523C4F8D43300237D
:104230001A4604F57571D4F8CC0300F02DFED5E7CD
:1042400094F83913204600F015FC08B909232370AF
:104250000123C4F8D43300231A4604F57571D4F849
:10426000CC0300F019FEC1E794F83B3313F0200FA4
:104270000DD10A2323700123C4F8D43300231A4636
:1042800004F57571D4F8CC0300F006FEAEE7012109
:10429000204600F000FC0028EDD10A232370EAE755
:1042A000D4F87C338BB10023C4F87833CBB1D4F885
:1042B000783373B39B682046984738BB0623237036
:1042C000D4F8C8330321204698470523C4F8D433D3
:1042D00000231A4604F57571D4F8CC0300F0DCFD18
:1042E00084E703F1DC0204EB82025268117994F84E
:1042F0004323914202D00133DBB2D7E703F1DC0262
:1043000004EB82025268C4F87823F4E70D2323708B
:10431000DBE70D232370D8E7D4F8783363B11B694A
:10432000204698478DF817009DF81730002B7FF432
:104330005DAF0B23237059E70D2323700523C4F8C9
:10434000D43300231A4604F57571D4F8CC0300F079
:10435000A3FD4BE7D4F87833002B3FF447AF5B69FC
:104360002046984742E72046FFF716FDD4F87833F9
:10437000002B3FF43BAFDB68204698470023C4F88E
:10438000783333E710B504464FF0FF33002204F5CD
:104390007571D4F8CC0300F0D1FD0028F4D120468B
:1043A000FFF7A9FEF0E710B504460378A3B901238F
:1043B00080F81E33D0F8C8330BB10421984701238D
:1043C000C4F8D43300231A4604F57571D4F8CC032D
:1043D00000F062FD002010BD90F81F33012BEED1DC
:1043E00002230370EBE710B5044603F04BF9217983
:1043F000204600F008FC6179204600F004FC002310
:1044000084F81E33D4F8C83313B1052120469847E9
:10441000204603F02FF9032323700123C4F8D4337B
:1044200000231A4604F57571D4F8CC0300F034FD6E
:10443000002010BD08B50123C0F8D43300231A466C
:1044400000F57571D0F8CC0300F026FD002008BD02
:1044500010B40B7803704B7843708B78CC7843EAB8
:10446000042343800B7903714B7943718B798371FA
:10447000CB79C371082A16D90B7A4A7A43EA022308
:1044800003818B7ACA7A43EA022343810B7B4A7BFE
:1044900043EA022383818B7B8373CB7BC3730B7CC7
:1044A00003744B7C43745DF8044B70470B780370C6
:1044B0004B7843708B788370CB78C3700B79037122
:1044C0004B7943718B798371CB79C3710B7A03720A
:1044D00070470B7803704B7843708B788370CB7880
:1044E000C3700B794A7943EA022383808B79837105
:1044F00070474378032B00D070470378023B9A4201
:1045000028BF1A4692B2002393420DD210B4C418A9
:10451000A47801F8014B02339BB29342F7D30023F6
:104520000B705DF8044B704700230B70704730B57B
:1045300083B00446037E013B0A2B00F28781DFE84B
:1045400013F00B00150050005C009200A000E90081
:10455000F5002B0139017101427900F1100100F0E1
:10456000BDFA02232376012003B030BD417903F068
:1045700047F8012805D0042824D0022822D00120A1
:10458000F2E7237CE28AA2B113F0800F0ED105235B
:1045900023760323C4F8D43300231A4604F5757137
:1045A000D4F8CC0300F078FC0120DDE70323237668
:1045B000EFE713F0800F02D107232376E9E7092301
:1045C0002376E6E70B2323760323C4F8D4330023B2
:1045D0001A4604F57571D4F8CC0300F05DFC012097
:1045E000C2E7D0F8BC33C38103798289816800F0C7
:1045F0009CFA042323760120B6E7017903F000F842
:104600000546012805D0052D11D0042D1CD0012010
:10461000AAE7092323760323C4F8D43300231A46D8
:1046200004F57571D4F8CC0300F036FCEBE70325F4
:10463000C4F8D45300231A4604F57571D4F8CC039A
:1046400000F02AFC28468FE70B2323760323C4F8C7
:10465000D43300231A4604F57571D4F8CC0300F066
:104660001BFC012080E74379828901250095816840
:1046700000F045FAD4F8BC33E381062323762846BC
:1046800072E7417902F0BCFF012807D0052814D059
:10469000022821D004282ED0012065E707232376A5
:1046A0000323C4F8D43300231A4604F57571D4F8F3
:1046B000CC0300F0F1FB012056E70C232376032501
:1046C000C4F8D45300231A4604F57571D4F8CC030A
:1046D00000F0E2FB284647E7052323760323C4F8CE
:1046E000D43300231A4604F57571D4F8CC0300F0D6
:1046F000D3FB012038E70B2323760323C4F8D433FC
:1047000000231A4604F57571D4F8CC0300F0C4FBFD
:10471000022029E703790022114600F006FAD4F8B6
:10472000BC33E3810823237601201DE7017902F0E1
:1047300067FF012805D0042812D005281FD00120CA
:1047400012E70D2323760323C4F8D43300231A463B
:1047500004F57571D4F8CC0300F09EFB002003E74C
:104760000B2323760323C4F8D43300231A4604F51D
:104770007571D4F8CC0300F08FFB0120F4E603251B
:10478000C4F8D45300231A4604F57571D4F8CC0349
:1047900000F082FB2846E7E64379012500950022D8
:1047A000114600F0ACF9D4F8BC33E3810A23237638
:1047B0002846D9E6417902F023FF012805D00228D6
:1047C00012D004281FD00120CEE60D232376032328
:1047D000C4F8D43300231A4604F57571D4F8CC0319
:1047E00000F05AFB0020BFE6092323760323C4F818
:1047F000D43300231A4604F57571D4F8CC0300F0C5
:104800004BFB0120B0E60B2323760323C4F8D433FB
:1048100000231A4604F57571D4F8CC0300F03CFB74
:104820000120A1E6437E0133DBB24376022B07D998
:10483000D0F8C8330621984700236376022093E618
:1048400002F020FF01202076A0708DE601208BE68B
:1048500003780A8813440B800378184470472DE9C5
:10486000F04182B00C460B7803704B7843708B7824
:10487000C97843EA01234380237903716379437143
:10488000A3798371E379C371237A0372092A44D926
:1048900005460923ADF806300026012E3DD86A886A
:1048A000BDF806309A4238D90DF106012046FFF7CF
:1048B000CFFF04464378042BEFD1B0461A2000FB0B
:1048C00006F00830284421460230FFF7EFFD0027AC
:1048D0001A2303FB08539B7BBB421BD96A88BDF894
:1048E00006309A4216D90DF106012046FFF7B0FFB7
:1048F00004464378052BEBD101371A2000FB08F062
:1049000000EBC7000830284421460430FFF7E1FDE2
:10491000FFB2DDE70136F6B2BFE702B0BDE8F081D5
:1049200038B504468378012B03D0022B14D001251F
:1049300010E08160828101250576022383700323C4
:10494000C0F8D43300231A4600F57571D0F8CC03B3
:1049500000F0A2FA284638BDFFF7E9FD054630B160
:10496000032809D00228F5D10122A270F2E7012222
:10497000A27000222276EDE70122A27000222276A8
:10498000E8E738B5BDF810508478012C04D02A46E9
:104990001946FFF7C5FF38BD61F07F040474062196
:1049A0004174428202F47F44B4F5407F03D0002278
:1049B0008282C582EBE740F209428282F9E7F0B5D4
:1049C00083B0044600F58E750E4600912B464FF4D9
:1049D00080720021FFF7D5FF074610B1384603B0BB
:1049E000F0BD3246294604F22230FFF731FDF5E7EB
:1049F000F0B583B004460E4600F11C0500912B462D
:104A00004FF400720021FFF7BCFF074610B1384693
:104A100003B0F0BD3246294604F54D70FFF71FFF85
:104A2000F5E7F0B583B017461D4600F58E74009388
:104A3000234641F440720021FFF7A3FF064610B160
:104A4000304603B0F0BD2A4639462046FFF751FDF7
:104A5000F6E708B58378012B04D000221146FFF752
:104A60005FFF08BD002303740522427441828382E4
:104A7000C382F2E708B58378012B04D000221146E7
:104A8000FFF74EFF08BD00230374092242744182E0
:104A90008382C382F2E708B58378012B04D0002219
:104AA0001146FFF73DFF08BD002303740322427443
:104AB00041828382C382F2E708B58378012B04D058
:104AC00000221146FFF72CFF08BD022303740123C7
:104AD0004374002343828182C382F1E730B585B0FD
:104AE0001546002403940823029301910094234661
:104AF0002246294602F0F1FD204605B030BD30B512
:104B000085B00C4619469DF8203090F81D5305B12C
:104B100000230393029201940123009300231A4679
:104B200002F0DBFD002005B030BD30B585B01D467C
:104B30000024039402920191012200922346294607
:104B400002F0CBFD204605B030BD30B585B00C4637
:104B500019469DF8203090F81D5305B100230393AA
:104B600002920194012300930223002202F0B5FD7A
:104B7000002005B030BD30B585B01D46002403943B
:104B800002920191012200920223294602F0A5FD22
:104B9000204605B030BD00230A2B0BD803F1E002FC
:104BA00050F8222012F4004F02D00133DBB2F3E7B9
:104BB00098B270474FF6FF70704710B584B0BDF8DB
:104BC000204002949DF81C4001949DF818400094E8
:104BD00002F068FD002004B010BD08B502F075FDBC
:104BE000002008BD38B505460C46FFF7D4FF4FF648
:104BF000FF73984205D044F4004400F1E00345F807
:104C00002340C0B238BD0A2906D8E03150F821301F
:104C1000C3F30E0340F8213000207047EFF3058303
:104C20009BB9EFF310839BB90C4B1B68022B05D08B
:104C30008BB90A4B01221A6000207047EFF31182F2
:104C4000002AF5D06FF0050070476FF0050070473F
:104C50006FF0050070474FF0FF307047B400002040
:104C600008B5EFF30583B3B9EFF31083B3B90E4B77
:104C70001B68022B08D0012B13D10B4B02221A60A8
:104C800000F0A0FF002008BDEFF31182002AF2D04F
:104C90006FF00500F7E76FF00500F4E76FF005002F
:104CA000F1E74FF0FF30EEE7B4000020F0B587B039
:104CB00000240494EFF305844CBBEFF3108333BB63
:104CC000334B1B68022B25D008B300238DF8173017
:104CD00092B316681EB3946904B91824631E372B67
:104CE00052D8536813F0010F50D15569D5B14FEA2E
:104CF000950C93682BB1D768532F02D9176907B168
:104D00000DBB93B14FF0FF35012D23D075B304983F
:104D100007B0F0BDEFF31183002BF8D1D4E70DF10C
:104D20001706D8E74FF0800CE3E7D3686BB9136937
:104D300073B14FF0FF35E7E7002518244FF0800CE2
:104D40000DF11706E0E70125DEE74FF0FF35DBE761
:104D50000025D9E7136992680292019300940B46EB
:104D60006246314600F0C2FE0490D0E704AA0192E8
:104D700000940B461FFA8CF2314600F0F0FE012839
:104D8000C5D000230493C2E70020C1E70020BFE79D
:104D9000B400002008B5EFF30583A3B9EFF3108347
:104DA000A3B90C4B1B68022B02D040B9002008BDF0
:104DB000EFF31183002BF8D06FF00500F7E701F057
:104DC00055F80020F3E76FF00500F0E76FF00500FD
:104DD000EDE700BFB400002070B582B0EFF30583AB
:104DE000002B4CD1EFF31083002B4AD1294B1B68C9
:104DF000022B23D0002846D0002946D01446002A92
:104E000034D093684BB1D268472A06D9226922B1BF
:104E1000666901FB00F5AE4222D2ABB14FF0FF3321
:104E2000ABBB002200F07AFA054625B12CB321680D
:104E3000284600F0C1FC284602B070BDEFF3118394
:104E4000002BD7D00025F6E7E3688BB9236913B1AF
:104E50004FF0FF33E4E763696BB14FF0FF33DFE7F7
:104E60000025009500F012FA0546DEE70023D7E79B
:104E70004FF0FF33D4E70023D2E70021D8E7002525
:104E8000D9E70025D7E70025D5E70025D3E700259A
:104E9000D1E700BFB400002010B582B01C46EFF38C
:104EA0000583B3B9EFF310839BB9224B1B68022B28
:104EB0000BD0A0B3B1B30023224600F057FA01286B
:104EC00033D0A4B36FF0010027E0EFF31183002B80
:104ED000EFD0A8B1B9B1CCB9002302AA42F8043D81
:104EE00000F002FB012814D1019BABB1124B4FF033
:104EF00080521A60BFF34F8FBFF36F8F00200CE01A
:104F00006FF0030009E06FF0030006E06FF00300AC
:104F100003E06FF0020000E0002002B010BD6FF06F
:104F20000300FAE76FF00300F7E70020F5E76FF002
:104F30000200F2E7B400002004ED00E010B582B0FA
:104F40001C46EFF30583ABB9EFF3108393B9224B03
:104F50001B68022B0AD098B3A9B3224600F02AFBA3
:104F6000012833D0A4B36FF0010027E0EFF31183E1
:104F7000002BF0D0A8B1B9B1CCB902AA002342F8F5
:104F8000043D00F0C3FB012814D1019BABB1134BCE
:104F90004FF080521A60BFF34F8FBFF36F8F002026
:104FA0000CE06FF0030009E06FF0030006E06FF023
:104FB000030003E06FF0020000E0002002B010BD2B
:104FC0006FF00300FAE76FF00300F7E70020F5E762
:104FD0006FF00200F2E700BFB400002004ED00E033
:104FE00010B4054B1C1D046058330B608023136004
:104FF0005DF8044B704700BFB400002010B4064BAE
:1050000003F51674046003F52B730B604FF4807383
:1050100013605DF8044B7047B400002000F10803F2
:1050200043604FF0FF328260C3600361002303607E
:10503000704700230361704743684B609A688A6039
:105040009A68516099600861036801330360704792
:1050500030B40D68B5F1FF3F02D000F1080202E064
:10506000026904E01A4653681C68AC42FAD95368D6
:105070004B6099608A605160086103680133036086
:1050800030BC7047036942688168916082684168FA
:1050900051605A68824206D0002202611A68013AC1
:1050A0001A601868704782685A60F5E710B50446C0
:1050B00001F0E8FAA26BE36B9A4204D0002401F0FD
:1050C00003FB204610BD0124F9E710B5044601F0AA
:1050D000D9FAA36B23B1002401F0F6FA204610BDE3
:1050E0000124F9E770B504461646856B026C5AB97F
:1050F00003681BB100200135A56370BD406801F055
:1051000003F800236360F6E76EB9806802F06AFB7B
:10511000226CA3681344A3606268934219D3236886
:10512000A3600020E7E7C06802F05CFB226C5242FB
:10513000E3681344E36021688B4202D263681A4437
:10514000E260022E01D00020D5E725B1013D00200C
:10515000D1E70020CFE70020CDE7026C72B110B597
:10516000C3681344C3604468A34201D30368C360A7
:105170000C46C168204602F035FB10BD704738B5BB
:10518000054601F07FFA95F8454064B203E000F06F
:10519000A3FF013C64B2002C08DD6B6A33B105F15A
:1051A000240000F00BFF0028F3D0F0E7FF2385F880
:1051B000453001F089FA01F065FA95F8444064B28F
:1051C00003E000F089FF013C64B2002C08DD2B698C
:1051D00033B105F1100000F0F1FE0028F3D0F0E744
:1051E000FF2385F8443001F06FFA38BD38B540B977
:1051F0004FF0500383F31188BFF36F8FBFF34F8FCE
:10520000FEE704460D4601F03DFA2168E26B236C8F
:1052100003FB021060600020A063A160013A02FB62
:105220000313E360FF2384F8443084F84530A5B9C4
:1052300023691BB901F048FA012038BD04F11000C0
:1052400000F0BCFE0028F5D0084B4FF080521A60E9
:10525000BFF34F8FBFF36F8FECE704F11000FFF740
:10526000DDFE04F12400FFF7D9FEE3E704ED00E0E2
:1052700010B5029B0C4639B11A60D8631C64012139
:105280001846FFF7B3FF10BD1B60F6E740B94FF0BB
:10529000500383F31188BFF36F8FBFF34F8FFEE787
:1052A00010B584B0044653B192B189B94FF05003A0
:1052B00083F31188BFF36F8FBFF34F8FFEE74FF07B
:1052C000500383F31188BFF36F8FBFF34F8FFEE757
:1052D0004AB941B14FF0500383F31188BFF36F8F88
:1052E000BFF34F8FFEE7482003900398482808D06B
:1052F0004FF0500383F31188BFF36F8FBFF34F8FCD
:10530000FEE720461C46012384F8463000949DF8B1
:105310001830FFF7ADFF204604B010BD40B94FF084
:10532000500383F31188BFF36F8FBFF34F8FFEE7F6
:10533000F0B583B0064611B101FB00F000E000209B
:1053400017460C46483001F03FFB054650B100239C
:1053500080F8463000903B4600F148022146304636
:10536000FFF786FF284603B0F0BD0000F0B585B01A
:10537000019260B1044699B9026C8AB14FF05003B2
:1053800083F31188BFF36F8FBFF34F8FFEE74FF0AA
:10539000500383F31188BFF36F8FBFF34F8FFEE786
:1053A000022B0BD1E26B012A08D04FF0500383F39C
:1053B0001188BFF36F8FBFF34F8FFEE71E460F4676
:1053C00000F092FE50B9019B53B14FF0500383F3AC
:1053D0001188BFF36F8FBFF34F8FFEE700253AE0D0
:1053E000002538E0324639462046FFF77BFE636AE7
:1053F0004BB9A8B13B4B4FF080521A60BFF34F8FAF
:10540000BFF36F8F0CE004F1240000F0D7FD38B13A
:10541000344B4FF080521A60BFF34F8FBFF36F8F42
:1054200001F052F9012005B0F0BD01F04DF9002066
:10543000F9E702A800F006FE012519E0002384F830
:10544000443021E0002384F8453023E02046FFF774
:1054500096FE00F093FC01F015F9A26BE36B9A4203
:10546000C0D3022EBED0019B002BDED0002DE0D099
:1054700001F02AF900F0ECFB01F004F994F8443053
:105480005BB2B3F1FF3FD9D094F845305BB2B3F1D2
:10549000FF3FD7D001F018F901A902A800F0DCFD08
:1054A000C8B92046FFF702FE0028CFD0019904F1C9
:1054B000100000F04BFD2046FFF761FE00F05EFC9F
:1054C0000028C8D1074B4FF080521A60BFF34F8FAE
:1054D000BFF36F8FBFE72046FFF751FE00F04EFC91
:1054E0000020A0E704ED00E02DE9F84360B1044698
:1054F00099B9006C88B14FF0500383F31188BFF362
:105500006F8FBFF34F8FFEE74FF0500383F3118887
:10551000BFF36F8FBFF34F8FFEE7022B0BD1E06B12
:10552000012808D04FF0500383F31188BFF36F8F29
:10553000BFF34F8FFEE71F469046894601F0C8F93A
:10554000EFF311864FF0500383F31188BFF36F8F91
:10555000BFF34F8FA26BE36B9A4203D3022F01D0AC
:1055600000200FE094F845506DB23A464946204677
:10557000FFF7B8FDB5F1FF3F08D06B1C5BB284F8B4
:105580004530012086F31188BDE8F883636A5BB17A
:1055900004F1240000F012FD40B1B8F1000F07D073
:1055A0000120C8F80000EDE70120EBE70120E9E762
:1055B0000120E7E7F0B585B0019260B1044699B9E2
:1055C000036C8BB14FF0500383F31188BFF36F8FDF
:1055D000BFF34F8FFEE74FF0500383F31188BFF303
:1055E0006F8FBFF34F8FFEE70F4600F07DFD50B980
:1055F000019B53B14FF0500383F31188BFF36F8FBA
:10560000BFF34F8FFEE700263EE000263CE0394620
:105610002046FFF7A2FD013DA563236923B901F0F0
:1056200053F8012005B0F0BD04F1100000F0C6FCF5
:105630000028F4D0344B4FF080521A60BFF34F8FE4
:10564000BFF36F8FEBE701F03FF80020EAE702A815
:1056500000F0F8FC012621E0002384F8443029E022
:10566000002384F845302BE02046FFF788FD00F04A
:1056700085FB09E02046FFF782FD00F07FFB204616
:10568000FFF723FD00283DD100F0FCFFA56B002DA6
:10569000BDD1019B002BD6D0002ED8D001F014F83C
:1056A00000F0D6FA00F0EEFF94F844305BB2B3F1AC
:1056B000FF3FD1D094F845305BB2B3F1FF3FCFD07C
:1056C00001F002F801A902A800F0C6FC0028D1D11F
:1056D0002046FFF7FAFC0028C6D0019904F1240007
:1056E00000F034FC2046FFF74AFD00F047FB00289D
:1056F000CAD1054B4FF080521A60BFF34F8FBFF3F2
:105700006F8FC1E700208DE704ED00E02DE9F8433D
:1057100060B1044699B9036C8BB14FF0500383F329
:105720001188BFF36F8FBFF34F8FFEE74FF0500329
:1057300083F31188BFF36F8FBFF34F8FFEE71746D8
:10574000894601F0C5F8EFF311864FF0500383F35B
:105750001188BFF36F8FBFF34F8FD4F83880B8F143
:10576000000F1DD094F844506DB249462046FFF713
:10577000F4FC08F1FF33A363B5F1FF3F05D06B1CC8
:105780005BB284F8443001200BE023696BB104F173
:10579000100000F013FC50B15FB10120386000E050
:1057A000002086F31188BDE8F8830120F9E7012085
:1057B000F7E70120F5E700000023072B0CD8074A84
:1057C00052F833200AB10133F7E7044A42F83310A4
:1057D00002EBC30358607047704700BFBC4B00200A
:1057E00070B504460D46164600F04CFF94F8443060
:1057F0005BB2B3F1FF3F0DD094F845305BB2B3F12B
:10580000FF3F0BD000F060FFA36B5BB12046FFF7BA
:10581000B6FC70BD002384F84430EDE7002384F823
:105820004530EFE73246294604F1240000F0A8FB9A
:10583000ECE70000074B9B6A1B6833B1054B9A6A83
:10584000D268D2685268DA627047024B4FF0FF327A
:10585000DA627047600700202DE9F04780469946DC
:10586000089D099F0A9C266B02F18042013A06EBD3
:10587000820626F0070600230F2B07D8C85CE21823
:1058800082F83400CA5C0AB10133F5E7002384F8DA
:105890004330372D00D93725E56265644FF0000AA3
:1058A000C4F848A0201DFFF7C4FB04F11800FFF75F
:1058B000C0FB2461C5F13805A5616462C4F84CA041
:1058C00084F850A04A464146304600F0AFFE2060C2
:1058D00007B13C60BDE8F08770B5002407E004EB39
:1058E0008402930010481844FFF798FB0134372CCA
:1058F000F5D90E4C04F592663046FFF78FFB04F2A3
:10590000A4452846FFF78AFB04F11400FFF786FB45
:1059100004F59760FFF782FB2046FFF77FFBA66246
:10592000C4F8CC5470BD00BF900700206007002071
:1059300038B5044600F0A6FE264BD3F8D024013239
:10594000C3F8D024D3F8D43473B1224BD3F8D8346D
:105950008BB9204BD3F8D434DA6AE36A9A420AD876
:105960001C4BC3F8D44406E01A4BC3F8D444D3F814
:10597000D034012B2BD0174AD2F8DC340133C2F8D3
:10598000DC34E36AD2F8E024934202D9114AC2F827
:10599000E034104D05F1300003EB83039A00211D24
:1059A0001044FFF749FB00F08FFED5F8D8346BB1F7
:1059B000D5F8D434DA6AE36A9A4207D2064B4FF03C
:1059C00080521A60BFF34F8FBFF36F8F38BDFFF760
:1059D00083FFD0E76007002004ED00E010B5044627
:1059E00090F8513033B9006B01F068F8204601F0AF
:1059F00065F810BD012B0AD0022BFAD04FF05003EE
:105A000083F31188BFF36F8FBFF34F8FFEE701F071
:105A100055F8EEE738B517E000F034FE0D4CD4F839
:105A2000C434DD68281DFFF72DFBD4F8D034013BCA
:105A3000C4F8D034D4F8E434013BC4F8E43400F0C2
:105A400043FE2846FFF7CAFF024BD3F8E434002B8D
:105A5000E2D138BD6007002008B5FFF7DBFF064B39
:105A60001B6B012BF9D9054B4FF080521A60BFF325
:105A70004F8FBFF36F8FF0E76007002004ED00E069
:105A800070B504460E46184BD3F8E854D3F8D40446
:105A90000430FFF7F7FAB4F1FF3F12D02C44124B59
:105AA000D3F8D4345C60A54214D80F4DA86AD5F859
:105AB000D4140431FFF7CCFAEB6AA34212D9EC629A
:105AC00010E0002EEAD00848D0F8D4140431FFF7D3
:105AD000B3FA07E0044BD3F8CC04D3F8D414043160
